:10000000F92F00308A000408840A820700343E3445
:100010004134413441343E34003442347F3440343E
:10002000003442346134513449344634213441344B
:1000300045344B3431341834143412347F34103492
:10004000273445344534453439343C344A34493412
:1000500049343034013471340934053403343634CE
:10006000493449344934363406344934493429341E
:100070001E347C341234113412347C347F344934CD
:100080004934493436343E344134413441342234E5
:100090007F344134413441343E347F34493449342F
:1000A000493441347F340934093409340134043487
:1000B0000134093489348134103402340A348D34E3
:1000C0008534013404340C348134893402341034DE
:1000D000183485348D34512C5B2C652C6F2C792C85
:1000E000AC2C832CAC2C8D2CAC2CAC2CAC2C972CAD
:1000F000472E4A2E4D2E502E5F2E622E652E682ED4
:1006F20064008001840A04060319003404067A2B7C
:10070200F200831203131308F0007008F1008C1139
:10071200941372089300941B08008C1908008E2B06
:10072200F300F201731C992B7008F1007108F207B3
:100732000310F00D0310F30CF308031D932B720842
:100742000800831203138617000083120313061294
:10075200861221308123B130812304308123143069
:100762008123203081230C30812383120313061648
:10077200BB230800831203130612861280308123E2
:1007820040308123831203138616F401543074021D
:100792000318DF2B003081230030812300308123B6
:1007A2000030812300308123003081230130F300A7
:1007B2007308F40754307402031CCB2B8312031307
:1007C20006160800F7008312031306128612770832
:1007D200803E81237408403E8123831203138616D0
:1007E200F801053078020318092C0530F600760866
:1007F200F00075089123013E7807840001208123CF
:100802000130F6007608F80705307802031CF62B53
:10081200831203130616080083160313970171301F
:100822008F00023081008312031390018B01831623
:1008320003138C018D01960183120317960183160F
:100842000313950183120317950183120313850184
:10085200860187010730831203179E009F018316CA
:1008620003138501860187018312031799019A01F7
:1008720098018130831203139F00503083160313B3
:100882009F008312031398019401140840308316C9
:10089200031394008312031394160800F000A12C92
:1008A200831203130710871007118711071287128B
:1008B2000713080083120313071487100711871107
:1008C20007128712071308008312031307108710F9
:1008D20007158711071287120713080083120313E3
:1008E20007108714071187110712871207130800D0
:1008F2008312031307108710071187110716871237
:1009020007130800831203130710871007118715B6
:1009120007128712071308008312031307108710A8
:100922000711871107128712071708008312031392
:10093200071087100711871107128716071308007F
:10094200700884000D3004020318080000308A0089
:100952006B3004078200080083120313A9000530DC
:10096200F6007608F00029089123513E8400012008
:10097200F700770883120313A4000530F600760807
:10098200F00029089123013E513E84000120F70026
:10099200770883120313A5000530F6007608F000ED
:1009A20029089123023E513E84000120F700770876
:1009B20083120313A6000530F6007608F00029081A
:1009C2009123033E513E84000120F70077088312F1
:1009D2000313A7000530F6007608F00029089123DA
:1009E200043E513E84000120F7007708831203136E
:1009F200A8002408850027089F00000000000000CE
:100A0200831203132608831603138500831203132C
:100A120028089F000000831203139F1408308316D6
:100A2200031385008312031385019F18162D1E08D8
:100A3200A101A107831603131E0883120313A00149
:100A4200A0072508850027089F000000000000007D
:100A520083120313260883160313850083120313DC
:100A620028089F000000831203139F140830831686
:100A7200031385008312031385019F183E2D1E0860
:100A8200A301A307831603131E0883120313A201F3
:100A9200A2072009F6002109F700F60A0319F70A4E
:100AA20022087607F80023080318230A7707F900BB
:100AB2007808003EF40079080318013E043EF50070
:100AC200080083120313EA01E501E801E4010D24A1
:100AD200A2239A2683120313E90104306902031840
:100AE200E02D6908DF005F08F4006908E000600794
:100AF200B03E840083130008E100840A0008E2008B
:100B0200620E0F39E100E20161080F39E300630868
:100B1200F5000030E323831203136908DF005F0846
:100B2200F4006908E0006007B03E84008313000807
:100B3200E100840A0008E20062080F39E30063085A
:100B4200F5000630E323831203136908DF005F0810
:100B5200F4006908E0006007B03E840083130008D7
:100B6200E100840A0008E20004300310E20CE10C08
:100B7200FF3E031DB62D61080F39E3006308F5003F
:100B82000C30E323831203136908DF005F08F400CB
:100B92006908E0006007B03E8400831300080F3943
:100BA200E1006108F5001230E323013083120313E0
:100BB200DF005F08E90704306902031C722D83120B
:100BC20003136808AD24750883120313E701E707CE
:100BD2007408E601E6076808DF005F08F4006708AA
:100BE200E1006608E000610E0F39E000E1016008F3
:100BF2000F39E2006208F5001E30E323831203136B
:100C02006808DF005F08F40067080F39E000600839
:100C1200F5002430E323831203136808DF005F0822
:100C2200F4006708E1006608E00004300310E10CFC
:100C3200E00CFF3E031D172E60080F39E200620828
:100C4200F5002A30E323831203136808DF005F08EC
:100C5200F40066080F39E0006008F5003030E32345
:100C6200831203136808DF005F07B03E840083131A
:100C72000008E000840A0008E10067086102031D21
:100C8200442E66086002031C532E6E2E6A08013839
:100C92006A2E6A0802386A2E6A0804386A2E6A08BE
:100CA20008386A2E68088400043004020318792E7A
:100CB20000308A00783004078200792E6A08FE39F3
:100CC2006A2E6A08FD396A2E6A08FB396A2E6A089A
:100CD200F739DF005F08EA00792E680884000430E3
:100CE20004020318792E00308A007C300407820047
:100CF2006A08650603198E2E0B1D842E0B11013016
:100D0200DF005F08E40703306402031C972E6A08C1
:100D1200DF005F08E500E401972EE4010130DF0007
:100D22005F08E807043068020318E80165084F24E9
:100D3200E02D4C308400A03083120313AA00040873
:100D4200AB001030AC002A08840083130008AD0009
:100D5200AA0A2B0884002D088000AB0AAC0BA42E33
:100D620044308400B830AA000408AB000830AC005C
:100D72002A08840083130008AD00AA0A2B08840005
:100D82002D088000AB0AAC0BB92EDC0180305C026E
:100D920003184E2FDE0104305E020318462F5E0850
:100DA200AD24831203135E08AA002A073C3E840086
:100DB200740883138000840A750880005E08AA0004
:100DC2002A073C3E84000008AB00840A0008AC00FD
:100DD2002B08AD002C08AE00AF01B0015E08B100D7
:100DE20001300310B10DFF3E031DF22E0310310D31
:100DF2004C3E84002D088007840A2E080318013E09
:100E0200031D8007840A2F080318013E031D800773
:100E1200840A30080318013E80075E08AA002A07E8
:100E22003C3E84000008AB00840A0008AC005E0867
:100E3200AD002D07443E84000008AE00840A00087D
:100E4200AF002C082F02031D282F2B082E02031897
:100E52003E2F5E08AA002A073C3E84000008AB0031
:100E6200840A0008AC005E08AD002D07443E8400F1
:100E72002B088000840A2C0880000130AA002A086E
:100E8200DE0704305E02031CD02E0130AA002A08BD
:100E9200DC0780305C02031CCB2EDD0104305D02D6
:100EA200031808005D08AA0001300310AA0DFF3ED6
:100EB200031D562F03102A0D4C3E84008313000895
:100EC200AB00840A0008AC00840A0008AD00840A62
:100ED2000008AE0007300310AE0CAD0CAC0CAB0C2E
:100EE200FF3E031D6C2F5D08AF0001300310AF0DF4
:100EF200FF3E031D772F03102F0D4C3E84002B085D
:100F02008000840A2C088000840A2D088000840A4C
:100F12002E0880005D08AA002A07443E84000008CB
:100F2200AB00840A0008AC005D08AD00013003107C
:100F3200AD0DFF3E031D982F03102D0D4C3E840076
:100F42000008AE00840A0008AF00840A0008B0005E
:100F5200840A0008B100AE09AF09B009B109AE0AAE
:100F62000319AF0A0319B00A0319B10A5D08B200E6
:100F72003207443E84000008B300840A0008B4002B
:100F82003308B5003408B600B701B8013508AE071A
:100F920036080318360FCE2FCF2FAF0737080318A6
:100FA200370FD42FD52FB00738080318380AB107E6
:100FB20001300310B10CB00CAF0CAE0CFF3E031DA0
:100FC200DA2F2B082E07B9002C0803182C0A2F073A
:100FD200BA005D08BB003B07B03E840039088000C0
:100FE200840A3A0880000130AA002A08DD074F2F40
:0E0FF2008313A0308400C03079238301622D68
:02400E00E4F3D9
:00000001FF
