:10000000F52F00308A000408840A820700343E3449
:100010004134413441343E34003442347F3440343E
:10002000003442346134513449344634213441344B
:1000300045344B3431341834143412347F34103492
:10004000273445344534453439343C344A34493412
:1000500049343034013471340934053403343634CE
:10006000493449344934363406344934493429341E
:100070001E347C341234113412347C347F344934CD
:100080004934493436343E344134413441342234E5
:100090007F344134413441343E347F34493449342F
:1000A000493441347F340934093409340134043487
:1000B0000134093489348134103402340A348D34E3
:1000C0008534013404340C348134893402341034DE
:0E00D000183485348D349D2CA52CAD2CB52C08
:10080E0064008001840A0406031900340406082CCF
:10081E00F200831203131308F0007008F1008C111C
:10082E00941372089300941B08008C1908001C2C5A
:10083E00F300F201731C272C7008F1007108F20707
:10084E000310F00D0310F30CF308031D212C720896
:10085E0008008312031307170000831203130712F5
:10086E00871221300F24B1300F2404300F2414309E
:10087E000F2420300F240C300F248312031307167D
:10088E0049240800831203130712871280300F24A5
:10089E0040300F24831203138716F4015430740270
:1008AE0003186D2C00300F2400300F2400300F245D
:1008BE0000300F2400300F2400300F240130F300DD
:1008CE007308F40754307402031C592C831203135B
:1008DE0007160800F7008312031307128712770812
:1008EE00803E0F247408403E0F2483120313871694
:1008FE00F801053078020318972C0530F6007608BB
:10090E00F00075081F24013E7807840001200F2493
:10091E000130F6007608F80705307802031C842CA7
:10092E008312031307160800F100BD2C7008831202
:10093E000313031D07140319071008007008831210
:10094E000313031D87140319871008007008831200
:10095E000313031D071503190711080070088312EE
:10096E000313031D871503198711080071088400EE
:10097E00043004020318080000308A006B300407AC
:10098E008200080083160313970171308F00023026
:10099E0081008312031390018B01831603138C01C4
:1009AE008D01960183120317960183160313950189
:1009BE0083120317950183120313850186018701A4
:1009CE000730831203179E009F01831603138501C0
:1009DE00860187018312031799019A0198018130CC
:1009EE00831203139F005030831603139F0083124C
:1009FE0003139801940114084030831603139400D6
:100A0E00831203139416080083120313A9000530F2
:100A1E00F6007608F00029081F24513E84000120BC
:100A2E00F700770883120313A4000530F60076084A
:100A3E00F00029081F24013E513E84000120F700DA
:100A4E00770883120313A5000530F6007608F00030
:100A5E0029081F24023E513E84000120F70077082A
:100A6E0083120313A6000530F6007608F00029085D
:100A7E001F24033E513E84000120F70077088312A5
:100A8E000313A7000530F6007608F00029081F248E
:100A9E00043E513E84000120F700770883120313B1
:100AAE00A8002408850027089F0000000000000011
:100ABE008312031326088316031385008312031370
:100ACE0028089F000000831203139F14083083161A
:100ADE00031385008312031385019F18742D1E08BE
:100AEE00A101A107831603131E0883120313A0018D
:100AFE00A0072508850027089F00000000000000C1
:100B0E00831203132608831603138500831203131F
:100B1E0028089F000000831203139F1408308316C9
:100B2E00031385008312031385019F189C2D1E0845
:100B3E00A301A307831603131E0883120313A20136
:100B4E00A2072009F6002109F700F60A0319F70A91
:100B5E0022087607F80023080318230A7707F900FE
:100B6E007808003EF40079080318013E043EF500B3
:100B7E000800831203136F08E7006E08E6006D0885
:100B8E00E5006C08E400EA01E801C9243024962649
:100B9E0083120313EB0104306B020318442E6B080F
:100BAE00DF005F08F4006B08E0006007B03E8400D1
:100BBE0083130008E100840A0008E200620E0F3978
:100BCE00E100E20161080F39E3006308F50000302F
:100BDE007124831203136B08DF005F08F4006B08A7
:100BEE00E0006007B03E840083130008E100840A31
:100BFE000008E20062080F39E3006308F5000630D2
:100C0E007124831203136B08DF005F08F4006B0876
:100C1E00E0006007B03E840083130008E100840A00
:100C2E000008E20004300310E20CE10CFF3E031D4D
:100C3E001A2E61080F39E3006308F5000C30712499
:100C4E00831203136B08DF005F08F4006B08E000EB
:100C5E006007B03E8400831300080F39E10061087D
:100C6E00F50012307124013083120313DF005F0888
:100C7E00EB0704306B02031CD62D831203136A0894
:100C8E000B25831203136A08DF005F07B03E840052
:100C9E0083130008E000840A0008E1007508610271
:100CAE00031D5B2E740860020318602EE901E90A29
:100CBE00612EE9016A08643E840000086906031982
:100CCE007C2E0B1D6F2E0B110130DF005F08E80725
:100CDE0003306802031C852E6908DF006A08643E33
:100CEE0084005F088000E801852EE8010130DF00F6
:100CFE005F08EA0704306A020318EA016A08643ED4
:100D0E0084008008031D8F2EF0016A089B24442E58
:100D1E00F001F00A831203136A089B24442E4C3010
:100D2E008400A03083120313AA000408AB00103015
:100D3E00AC002A08840083130008AD00AA0A2B0811
:100D4E0084002D088000AB0AAC0BA02E443084002A
:100D5E00B830AA000408AB000830AC002A088400A2
:100D6E0083130008AD00AA0A2B0884002D0880000A
:100D7E00AB0AAC0BB52EDC0180305C0203184A2F97
:100D8E00DE0104305E020318422F5E080B2583122B
:100D9E0003135E08AA002A073C3E840074088313DE
:100DAE008000840A750880005E08AA002A073C3E6F
:100DBE0084000008AB00840A0008AC002B08AD00CC
:100DCE002C08AE00AF01B0015E08B1000130031077
:100DDE00B10DFF3E031DEE2E0310310D4C3E84006F
:100DEE002D088007840A2E080318013E031D800774
:100DFE00840A2F080318013E031D8007840A300859
:100E0E000318013E80075E08AA002A073C3E8400B4
:100E1E000008AB00840A0008AC005E08AD002D0788
:100E2E00443E84000008AE00840A0008AF002C087F
:100E3E002F02031D242F2B082E0203183A2F5E08B3
:100E4E00AA002A073C3E84000008AB00840A000872
:100E5E00AC005E08AD002D07443E84002B088000D8
:100E6E00840A2C0880000130AA002A08DE0704300C
:100E7E005E02031CCC2E0130AA002A08DC0780304B
:100E8E005C02031CC72EDD0104305D02031808004E
:100E9E005D08AA0001300310AA0DFF3E031D522F5C
:100EAE0003102A0D4C3E840083130008AB00840A05
:100EBE000008AC00840A0008AD00840A0008AE00E9
:100ECE0007300310AE0CAD0CAC0CAB0CFF3E031D8B
:100EDE00682F5D08AF0001300310AF0DFF3E031DFC
:100EEE00732F03102F0D4C3E84002B088000840AB4
:100EFE002C088000840A2D088000840A2E088000A9
:100F0E005D08AA002A07443E84000008AB00840A4C
:100F1E000008AC005D08AD0001300310AD0DFF3EC2
:100F2E00031D942F03102D0D4C3E84000008AE00BF
:100F3E00840A0008AF00840A0008B000840A000882
:100F4E00B100AE09AF09B009B109AE0A0319AF0A73
:100F5E000319B00A0319B10A5D08B2003207443E04
:100F6E0084000008B300840A0008B4003308B500FA
:100F7E003408B600B701B8013508AE0736080318B5
:100F8E00360FCA2FCB2FAF0737080318370FD02FC6
:100F9E00D12FB00738080318380AB10701300310F3
:100FAE00B10CB00CAF0CAE0CFF3E031DD62F2B08B0
:100FBE002E07B9002C0803182C0A2F07BA005D085B
:100FCE00BB003B07B03E840039088000840A3A0813
:100FDE0080000130AA002A08DD074B2F83136C30E6
:100FEE00840070300724A0308400C03007248301B1
:020FFE00C02D04
:02400E00E4F3D9
:00000001FF
